:020000040000FA
:100000008002001071010000790100007B010000F6
:100010007D0100007F010000810100000000000060
:10002000000000000000000000000000830100004C
:100030008501000000000000870100008901000028
:100040008B0100008B0100008B0100008B01000080
:100050008B0100008B0100008B0100008B01000070
:100060008B0100008B0100008B0100008B01000060
:100070008B0100008B0100008B0100008B01000050
:100080008B0100008B0100008B0100008B01000040
:100090008B0100008B0100008B0100008B01000030
:1000A0008B0100008B0100008B0100008B01000020
:1000B0008B0100008B0100008B0100008B01000010
:1000C0008B0100008B0100008B01000000F002F8A2
:1000D00000F03FF80AA090E8000C82448344AAF1A3
:1000E0000107DA4501D100F034F8AFF2090EBAE8A1
:1000F0000F0013F0010F18BFFB1A43F0010318475C
:100100003812000058120000103A24BF78C878C195
:10011000FAD8520724BF30C830C144BF04680C600D
:10012000704700000023002400250026103A28BF55
:1001300078C1FBD8520728BF30C148BF0B60704759
:10014000642900F0AB83002070471FB51FBD10B5B8
:1001500010BD00F053FC1146FFF7F7FF00F0A8F9BF
:1001600000F0C2F803B4FFF7F2FF03BC00F06CFC30
:100170000948804709480047FEE7FEE7FEE7FEE73B
:10018000FEE7FEE7FEE7FEE7FEE7FEE70448054977
:10019000034A054B70470000C5060000CD00000073
:1001A00080000010800200108000001053EA020C52
:1001B00000F069802DE9F04B4FF00006002B1FBFC7
:1001C000B3FA83F503FA05F424FA05F65E4012BF8C
:1001D0001643B2FA82F502FA05F4C5F120051EBFF6
:1001E00022FA05FC44EA0C04203556EA044C4FEA96
:1001F000144418BF641C4FF000084FF000099042EF
:1002000071EB030C39D3002919BFB1FA81F701FA58
:1002100007F6B0FA80F700FA07F6C7F120071EBF0D
:1002200020FA07FC46EA0C062037B6FBF4FCA7EBE5
:100230000507103F07F01F0BCBF120060CFA0BFB54
:100240002CFA06F644BFB3460026202FA4BF5E4614
:100250004FF0000B5BEA060C08BF4FF0010B19EBE7
:100260000B09ABFB027C48EB0608C01B06FB02CC6B
:100270000BFB03CC71EB0C01C1E70B460246414678
:100280004846BDE8F08B13B54FF000004FF0000179
:10029000AFF30080BDE81C40704700000FB4044974
:1002A00010B503AA029800F009F810BC5DF814FB21
:1002B0000C0000107047704770470000074B70B586
:1002C0000D467B4400F087FB0446284600F008F802
:1002D00010B14FF0FF3070BD204670BD3B000000F4
:1002E000007B00F0800070470446AFF3008020469A
:1002F000FFF738FF004870471C000010FFFFFFFFAA
:100300007D4A126812F0807F08D000BF4FF0604233
:100310001268002AFAD04FF06043187070472DE938
:10032000F0410446204600F0F5FE061E01DB314692
:1003300000E07142084600F009FF0746214600F040
:100340007BFF0546284600F057FE064600226B4B11
:1003500000F018FD04D8204600F0DCFEBDE8F08176
:10036000204600F0D7FE401CF8E700204FF0402167
:1003700008671820C86002204860704702204FF0CC
:100380004021486001204860704700204FF0402124
:10039000486008468068704702214FF04022516053
:1003A0000121516000BF4FF0402189688142FAD39A
:1003B00000214FF040225160704700B503464FF4D2
:1003C0007A7103FB01F0FFF7E7FF00BD00B54FF4C2
:1003D00000404B4988610A20FFF7DEFF4FF40040E0
:1003E0004749C86100BD2DE9F05F4FF0000AD346D0
:1003F00000BF4348406910F4803FFAD0FFF7BEFFCA
:1004000000BF3F48406900F48030B0F5803FF8D02D
:10041000FFF7BBFF044600F0B1FE8246504600F0F5
:10042000EBFD8046374A384B00F0E8FC06460022D8
:100430004FF0804300F04EFB044600F00DFB834676
:100440005846FFF76CFFBDE8F09FF0B503460C4639
:100450002E4804FB00F7FFF791FF1BE01E46002229
:1004600016E0D005264948630A2096FBF0F100FB10
:1004700011602749085C000121494861002500E01E
:100480006D1CB5F57A7FFBDB0A2096FBF0F6521C5B
:10049000042AE6DB4FF040208068B842DED3FFF745
:1004A00074FF0020164948634FF479604861F0BD3D
:1004B00000F008F900F032F80020164908604860A2
:1004C0004FF6F0700E49086000201249C8604FF0E6
:1004D000F0600B490862FFF748FF0CE0FFF776FF7A
:1004E000FFF781FF044621460BA0FFF7D7FE01214D
:1004F0002046FFF7AAFFF1E7FCED00E00000E03F37
:1005000000C00920006F8104C58FA13F40420F0049
:100510000000001000C0024025640A002DE9F047E9
:10052000B1480068C0F3016003287CD1AF4800687F
:1005300010F0030006D0012833D002285FD0032832
:100540002ED100E000BFA8480068C0F3074000F1CA
:1005500001044FF00201A648D0F88800C0F30E0055
:1005600000F10100A1FB0001A24B4FF0000CA0FB29
:10057000037901FB039100FB0C11224663463846C8
:10058000FFF714FE05469C480068C0B200F1010464
:1005900022464FF000032846FFF708FE97490860FF
:1005A0005DE091480068C0F3074000F101044FF09E
:1005B00002018F48D0F88800C0F30E0000F101005E
:1005C000A1FB00108E4A4FF0000CA1FB027900FB4A
:1005D000029001FB0C01224663463846FFF7E6FD18
:1005E000054685480068C0B200F1010422464FF07C
:1005F00000032846FFF7DAFD804908602FE07A48BB
:100600000068C0F3074000F101044FF00201784890
:10061000D0F88800C0F30E0000F10100A1FB001229
:100620004FF4004000E01BE04FF00003A1FB007915
:1006300002FB009001FB030122463846FFF7B6FD9E
:1006400005466D480068C0B200F1010422464FF033
:1006500000032846FFF7AAFD6849086000BF2FE0A5
:100660006248006810F0030006D0012810D002286C
:1006700019D0032823D100E000BF5F480068C0B252
:1006800000F101005B49B1FBF0F05C49086016E045
:1006900059480068C0B200F101005949B1FBF0F0BF
:1006A000564908600BE054480068C0B200F10100F0
:1006B0004FF40041B1FBF0F05049086000BF00BFAB
:1006C000BDE8F08720204F4908604948D0F8A001D4
:1006D00010F0200F05D000BF4A48006810F0400F0E
:1006E000FAD00320444908604FF000004049C1F8A7
:1006F000A801454908604FF001003C4908604348A3
:10070000434908604FF0AA00424908604FF0550085
:1007100008604FF00100404908604FF0AA003D49D1
:1007200008604FF055003249C1F88C0000BF2E48D8
:10073000006810F0806FFAD00320374908604FF04E
:10074000AA002B49C1F88C004FF0550031490860D0
:1007500000BF2548006800F04070B0F1407FF8D13C
:1007600023202E4908604FF0AA002149C1F8AC00AF
:100770004FF055002A4908604FF0010029490860F0
:100780004FF0AA00264908604FF055001849C1F8FB
:10079000AC0000BF2448006810F4806FFAD003203A
:1007A000204908604FF0AA001149C1F8AC004FF091
:1007B00055001B49086000BF1B48006800F44070EA
:1007C000B0F5407FF8D11948194908604FF0000092
:1007D0000749C1F8C8010846006820F4704040F499
:1007E000804008607047000088C00F400CC10F4077
:1007F00000C00F4000093D0004C10F401800001068
:10080000001BB700A0C10F40ACC10F406300050042
:1008100084C00F408CC00F4080C00F40A4C00F4068
:10082000ACC00F40A0C00F40A8C00F40DE87280416
:10083000C4C00F402DE9F0410E460446002020625E
:100840002046E168884730B3252805D0D4E9012146
:100850009047206A401CF2E7E1682046002788475D
:10086000050018D0A5F14100192802D820354FF411
:1008700000673246294620462760FFF761FC40B1F9
:10088000012804D0F61D26F007060836D8E7361DE5
:10089000D6E72846DAE7206ABDE8F0812DE9F04185
:1008A0000646002410687529314616A511D0AFF30D
:1008B0000080002803DAC0F1000013A507E03168CA
:1008C0008A0701D511A502E0490704D510A5012426
:1008D00001E0AFF3008000210A2306F1240707E0BE
:1008E000B0FBF3F203FB1200303078541046491C81
:1008F0000028F5D123462A463046BDE8F04100F0F5
:1009000009B80000000000002D0000002B000000CE
:10091000200000002DE9F0470D4699469246044616
:1009200000F124080168880604D5E06921F010016F
:10093000216000E00120A84202DDA0EB050700E0F5
:100940000027A16907EB050202EB0900A1EB0000FB
:10095000A0612078C00602D42046AFF300800026B4
:1009600008E0D4E901211AF806009047206A401CEB
:10097000761C20624E45F4DB2078C0060AD520465E
:10098000AFF3008006E0D4E9012130209047206ACF
:10099000401C2062381EA7F10107F4DC07E0D4E90F
:1009A000012118F805009047206A401C2062281E8B
:1009B000A5F10105F3DC2046AFF3008020780006A6
:1009C00002D50220BDE8F0870120FBE701694A1C3F
:1009D00002610878704700B58FB0CDE90131002180
:1009E000059105497944CDE9031011466846FFF7A2
:1009F00021FF0FB000BD0000E5FFFFFF7546FFF7C8
:100A000079FCAE4605006946534620F0070085464E
:100A100018B020B5FFF7BAFBBDE820404FF0000644
:100A20004FF000074FF000084FF0000B21F00701D6
:100A3000AC46ACE8C009ACE8C009ACE8C009ACE819
:100A4000C0098D467047000001491820ABBEFEE783
:100A5000260002007047000021F00042A2F160521F
:100A6000B2F5801F01F0004328BFD2F17F6C0BD993
:100A70005FEA001C43EAC20242EB507018BF7047A5
:100A800028BF20F001007047B2F5801FBCBF184698
:100A900070474FEA410C1CF5001F02D2084600F0D7
:100AA000C6BB70B500F054FA00000089FFF7F6BF2E
:100AB0004FF00040A0F580007047491058BFC1F1C9
:100AC00040415B1058BFC3F140438B42EFF30080BD
:100AD000704700002DE9C04130B4DFF8A0C23CEA05
:100AE000111418BF3CEA131400F0EC8081EA0305EE
:100AF0001CEA111444EAD57418BF1CEA131500F05F
:100B0000C780A4EB05044FF0004545EAC12145EA42
:100B1000C32341EA505143EA525304F17F7499428E
:100B200004F500344FEAC0204FEAC22208BF9042C9
:100B300000F09C804FEA13650FF24016765D4FEA95
:100B4000134506FB05F7C7F1807706FB07F74FEA69
:100B5000D737A7FB03687642C8F58038A7FB06CED7
:100B600038BFA8F1010807FB08E64FF0000EA6FB0E
:100B7000028CE6FB03CEDCF1000CCEF1004E38BF58
:100B8000AEF1010EA6FB0C584FF000074FF0000528
:100B9000E6FB0E87A1FB08C6A0FB07CE16EB0E06F0
:100BA00045F10005E1FB076515F1E04E7EBFA4F5B8
:100BB00080345FEA46066D4116F1800745F1000575
:100BC0004FEA17274FEA066647EA0567A6F1DE46B1
:100BD000B6F1805F4FEA15251FD9384624F0010C85
:100BE00005EBC471BCF1FE6F01EB0C1102D8F0BC37
:100BF000BDE8008124425CBF01F5801E9EEAC47FEF
:100C000002D4F0BCBDE80081244238D4F0BCA1F18C
:100C1000C041BDE8004100F0E9B94FEAD22242EA02
:100C200043524FEAD323A7FB02864FEAD02040EA83
:100C3000415007FB03661EEA0E0F4FEAD12105FB68
:100C4000026658BFA6EB0056B6EB00564FEA520EAE
:100C50004EEAC37E18EB0E0E56EB530EBDD518EBC5
:100C600002085E417F1C55F10005B6E74FF4801580
:100C70004FF000074FF000064FF00008ADE7F0BC62
:100C80004FF0000001F1C04101F00041BDE80081DA
:100C900011EA0C1F0CEA131500D00CE013EA0C1F2C
:100CA00000F025804FF00000F0BC81EA030101F064
:100CB0000041BDE80081F0BCBDE8004181EA0301CC
:100CC00000F094B9F0BCBDE8004170B500F040F907
:100CD000097EFC3E00F007B881EA03014FF00000F6
:100CE00001F00041704781EA030100F07FB9F0BCD8
:100CF000BDE800414FF0000021497047FFFDFBF9BE
:100D0000F7F5F4F2F0EEEDEBE9E8E6E4E3E1E0DE3E
:100D1000DDDBDAD8D7D5D4D3D1D0CFCDCCCBCAC8B0
:100D2000C7C6C5C4C2C1C0BFBEBDBCBBBAB9B8B7D7
:100D3000B6B5B4B3B2B1B0AFAEADACABAAA9A8A8CA
:100D4000A7A6A5A4A3A3A2A1A09F9F9E9D9C9C9B98
:100D50009A99999897979695959493939291919043
:100D60008F8F8E8E8D8C8C8B8B8A898988888787D4
:100D70008685858484838382828181800000FF0749
:100D80000000F87F51EA030C17D41CF5801F58BFF0
:100D9000BCF5801F00F10680994218BF704708BF5C
:100DA0009042704707D711F5801F58BF13F5801F79
:100DB00019D499427047894270471CF5801F08D5A5
:100DC000BCF5801FF7D58B4218BF704708BF824221
:100DD00070474FF4001C1CEB410F38BF1CEB430F56
:100DE00001D28B42704770B500F0B2F892244900EE
:100DF0004FF000514FF08053FFF75FBEDFF848C15E
:100E000070B51CEA111E1EBF1CEA13159EEA0C0FDA
:100E100095EA0C0F00F06F8081EA030423EA4C137B
:100E20004EEAD47E21EA4C1141F4801143F4801340
:100E3000AE44A1FB024CA0FB0365AEF17F7E3619E8
:100E400055EB0C05A1FB034C4CF10003A0FB021C6D
:100E500016EB0C06654153F10003094218BF46F03A
:100E6000010613F4007F0BD14FEA03314FEA05303E
:100E7000340341EA155140EA16506FF003020AE0CC
:100E80004FEAC3214FEAC520F40241EA555140EA36
:100E900056506FF0020202EB2E4201EB025585EA3A
:100EA000CE710AD05FEA440C18BF24F0004450F120
:100EB000000041F1000120EAD47040F2FE7C62455E
:100EC00000D270BDA84214BF4FF080444FF04044A0
:100ED000002E08BF0024BEF1806FA8BFA1F1C04161
:100EE000BDE8704080F282804FF0000001F1C04107
:100EF00001F0004170479EEA0C0F0CEA131518BF71
:100F000095EA0C0F06D04FF0000081EA030E0EF0B8
:100F1000004170BD00F01CF88900013E00F007B8E8
:100F200000F009B84FEA430C5FEA5C5C08D081EA44
:100F3000030100F05BB84FEA410C5FEA5C5CF6D15C
:100F40004FF00000014970470000FF070000F87FE4
:100F50000EF1020E2EF0030E5EF8046B364205D43D
:100F6000012A43EB030515F5001F12D8012841EBB8
:100F7000010C1CF5001F0CD80ED14FEAD17C15F5E1
:100F8000001F0CEB4C0C0CF1020C08BF4CEBD37C9B
:100F900004E04FF0080C01E04FEAD37C0CEB4C0569
:100FA00026FA05F606F00706B6F1040C06D20EEB9B
:100FB000860CBDE870404CF0010C6047DFE80CF097
:100FC000090B02024FF000414FF00000A1F5002193
:100FD00070BD19461046012851EB010418BFD4F525
:100FE000001484BF002001F0004170BD0808A0F586
:100FF00000114FEA3101704743004FEAD30C4FEA2A
:101000003C0C43401FBF40070CF1605113F0FE4FF2
:1010100070471CF0006F03D100200CF000417047B6
:101020000CF0004343EA507010B540EACC0000F0E9
:10103000B8F800BF000000924FEA0001FFF7D6BFEA
:101040004FF000414FF00000A1F500217047000073
:1010500090EA010F48BF81F0004100F1FE80421A82
:101060003CBF801A89184FEAD0524FF07F4C1CEADF
:10107000410FA2EBD15318BF9CEA026F00F03B80F6
:101080004FF0004C4CEA00204CEA012121FA03FC0D
:1010900010EB0C0C1ED202F1FF325FEA1C2040EB79
:1010A000C25038BF70471CF07F0F4FEA400C18BF8A
:1010B000BCF17F4F38BF7047C3F12003994008BF90
:1010C00020F00100BCF17F4F38BF7047A0F1C04055
:1010D00000F0ADB84FEA3C00000A40EBC25028BF18
:1010E0001CF0FF0F4FEA400CE6D018BFBCF17F4F59
:1010F00038BF7047EAE79CEA026F05D010EA5C0F40
:1011000008BF00F00040704710B500F04AF800BF7B
:1011100064FBBE3E41000B0ED3F19E0208D950F491
:1011200000034FEA032323FA02F048BF404270470E
:1011300010B500F036F800BF4992248000207047B7
:101140006FF0004282EA20007047000010F000417A
:1011500048BF4042B0FA80F310FA03F2C3F19D0396
:101160000BD051EAC35101EB1220530638BF704730
:1011700000F1010008BF20F001007047B0FA80F3D1
:1011800010FA03F2C3F19D030AD0D90501EB122036
:10119000530638BF704700F1010008BF20F001007E
:1011A00070470EF1020E2EF0030E5EF8044B24423F
:1011B00004D44FEA4102B2F17F4F11D84FEA400305
:1011C000B3F17F4F0CD80ED14FEAD07CB2F17F4FF4
:1011D0000CEB4C0C0CF1020C08BF4CEBD17C04E086
:1011E0004FF0080C01E04FEAD17C0CEB4C0324FAE1
:1011F00003F404F00704B4F1040C06D20EEB840CE3
:10120000BDE810404CF0010C6047DFE80CF0070827
:1012100002024FF00040A0F5800010BD08464200D9
:1012200018BFD2F1807288BF00F0004010BDFF21CE
:1012300041EAD050C005704780F0004090EA010FAD
:101240007FF50DAF81F0004100F007B890EA010F83
:1012500048BF81F000413FF502AF421A04D882F046
:101260000042A0EB020011444FEAD0524FF07F4CF5
:101270001CEA410FA2EBD15318BF9CEA026F4AD07F
:101280004FF0004C4CEA00204CEA012121FA03FC0B
:10129000B0EB0C0C0FD412F0FE0F36D05FEA4C000E
:1012A0001DD5001240EBC25038BF70471CF03F0FF5
:1012B00018BF70470BE0A2F101025FEA1C2040EB6F
:1012C000C25038BF70471CF07F0F18BF7047C3F182
:1012D0002003994014BF401E20F001007047800891
:1012E0004FEA122308BF7047B0FA80FCA2EB0C0251
:1012F000CCF1280C60FA0CF093EA122F04BF00EB3B
:10130000C25070474FEAC3707047130A5FEADC109F
:1013100008BF7047F6E79CEA026F04D010EA5C0F42
:1013200008BF0020704710B5FFF73BFF40DFF63ED7
:1013300081F00040704700005813000000000010CA
:101340001C00000008010000741300001C000010C5
:1013500064020000240100003F065B4F666D7D07BC
:101360007F6F00000000000000000000000000008F
:0413700000E1F5059E
:040000050000017185
:00000001FF
